:020000040000FA
:10000000B0F40120FD02000005030000070300001A
:10001000090300000B0300000D03000000000000B6
:100020000000000000000000000000000F030000BE
:10003000110300000000000013030000150300007E
:100040006D05000017030000B50800006106000000
:100050001703000017030000170300001703000038
:10006000170300001703000017030000C10500007C
:100070001703000017030000170300001703000018
:100080001703000017030000170300001703000008
:1000900017030000170300001703000017030000F8
:1000A00017030000170300001703000017030000E8
:1000B000170300001703000000000000000000000C
:1000C00017030000170300001703000017030000C8
:1000D00017030000170300001703000017030000B8
:1000E00017030000170300001703000000000000C2
:1000F00000000000170300000000000017030000CC
:1001000000000000000000000000000000000000EF
:1001100000000000000000000000000000000000DF
:1001200000000000000000000000000000000000CF
:1001300000000000000000000000000000000000BF
:1001400000000000000000000000000000000000AF
:10015000000000000000000000000000000000009F
:10016000000000000000000000000000000000008F
:10017000000000000000000000000000000000007F
:10018000000000000000000000000000000000006F
:10019000000000000000000000000000000000005F
:1001A000000000000000000000000000000000004F
:1001B000000000000000000000000000000000003F
:1001C000000000000000000000000000000000002F
:1001D000000000000000000000000000000000001F
:1001E000000000000000000000000000000000000F
:1001F00000000000000000000000000000000000FF
:10020000DFF810D000F022F900480047AD320000BE
:10021000AFF30080B0F4012030B4044654E8000F7E
:100220000D4644E80053002BF8D1156030BC7047F0
:1002300030B4044654E8000F40EA010544E8005396
:10024000002BF7D1156030BC704730B4044654E839
:10025000000F00EA010544E80053002BF7D11560B8
:1002600030BC704730B4044654E8000F80EA010502
:1002700044E80053002BF7D1156030BC704730B410
:10028000044654E8000F00EB010544E80053002B3E
:10029000F7D1156030BC704730B4044654E8000F05
:1002A000A0EB010544E80053002BF7D1156030BCEA
:1002B000704770B404464FF0000054E8006F0D68BA
:1002C000AE4207BF44E80023012044E800630E600B
:1002D000002B1CBF0020F0E770BC704730B4044610
:1002E00054E8000F88422CBF451A054644E80053E5
:1002F000002BF5D1156030BC7047000006488047E0
:1003000006480047FEE7FEE7FEE7FEE7FEE7FEE7FA
:10031000FEE7FEE7FEE7FEE78506000001020000BB
:100320002DE9F05F0546002092469B46884606462A
:10033000814640241BE0284641464746224600F0BD
:1003400074F853465A46C01A914110D311461846C4
:10035000224600F05BF82D1A67EB01084F46224653
:100360000120002100F052F817EB00094E41201E39
:10037000A4F10104DFDC484631462A464346BDE885
:10038000F09F000000487047086C000040EA01033D
:100390009B0703D009E008C9121F08C0042AFAD23B
:1003A00003E011F8013B00F8013B521EF9D27047FF
:1003B000D2B201E000F8012B491EFBD270470022A7
:1003C000F6E710B513460A4604461946FFF7F0FF54
:1003D000204610BD421E12F8013F002BFBD111F840
:1003E000013B02F8013B002BF9D17047421C10F889
:1003F000011B0029FBD1801A7047034611F8012B1D
:1004000000F8012B002AF9D118467047202A04DB96
:10041000203A00FA02F1002070479140C2F1200317
:1004200020FA03F3194390407047202A04DB203A56
:1004300021FA02F00021704721FA02F3D040C2F104
:10044000200291400843194670470000064C074DB2
:1004500006E0E06840F0010394E807009847103494
:10046000AC42F6D3FFF7D0FECC6C0000EC6C000081
:1004700010B52C2003F094FC80B9C82003F0DAF901
:100480002C2003F08DFC38B900BF2C2003F088FC31
:100490000028FAD0002010BD0120FCE70120FAE777
:1004A00010B52D2003F07CFC80B9C82003F0C2F900
:1004B0002D2003F075FC38B900BF2D2003F070FC2F
:1004C0000028FAD0002010BD0120FCE70120FAE747
:1004D00010B503212C2003F0C1FB03212D2003F0D4
:1004E000BDFB10BD10B5262003F067FC10BD10B594
:1004F000262003F0FAFB10BD70B50446262003F059
:1005000083FC254604EBD571481003F07BF92620C7
:1005100003F07AFC04EBD571481003F073F970BD59
:1005200010B5142003F049FC10BD10B5142003F0E1
:100530006BFC10BD10B5252003F03FFC10BD10B5BD
:10054000252003F0D2FB10BD10B5262003F0A3FB3D
:10055000142003F0A0FB252003F09DFBFFF7C2FF52
:10056000FFF7DEFFFFF7E6FF10BD000010B54FF408
:10057000807003F025F980B14FF4807003F029F901
:10058000012003F02FF90D48407930B901200B49C3
:10059000487108460168002088474FF4827003F0D4
:1005A0000FF950B14FF4827003F013F9022003F0F9
:1005B00019F9024801680120884710BD5000002049
:1005C00010B503220021024802F0EAFC10BD000031
:1005D00000B0004010B500F02BFA10BD2DE9F04737
:1005E000074688461646C24607EB47011B4800EB04
:1005F000C109D9F8140020B1012811D0022826D150
:100600001EE0484600F04CFA0546B54201D20024EF
:1006100005E0344632465146484600F088FA18E074
:10062000484600F03DFA0546B54201D2284600E0B2
:100630003046044622465146484600F078FA08E023
:1006400032465146484600F039FA044601E000249B
:1006500000BF00BF2046BDE8F087000040B2012087
:1006600010B50249024802F089FC10BDDCAB012044
:100670000030004001480249086070470090D003F4
:10068000CC00002010B502F083FF40B10020794972
:1006900008604FF08041C1F810017749086002F00E
:1006A00095FF002855D07548006875490860734863
:1006B000001D0068091D0860704808300068091DA9
:1006C00008606E480C300068091D08606B481030E7
:1006D0000068091D0860694814300068091D086039
:1006E00066481830006866492031086063481C304D
:1006F0000068091D0860614820300068091D086015
:100700005E4824300068091D08605C482830006895
:10071000091D086059482C300068091D08605748B9
:100720003030006856494031086054483430006821
:10073000091D0860514838300068091D08604F489D
:100740003C300068091D08604C4840300068091DB5
:10075000086002F059FF10B14A484B49086002F0A6
:100760009FFE10B1FB204949086002F0B7FE38B186
:10077000474801784748006861F30300454908602D
:1007800002F0CAFE18B14FF400704349086002F04D
:10079000E1FE40B14148006800F0010018B16FF07F
:1007A00001003E4908603E48006840F470003C4942
:1007B000086000BF00BF00BFBFF34F8F00BF00BF86
:1007C00000BF00BF00BF00BFBFF36F8F00BF00BFFF
:1007D00000BF3448006800F0004030B93148001DC7
:1007E000006800F00040002840D001202E49086039
:1007F00000BF2E4800680028FBD01220294908605D
:1008000000BF2A4800680028FBD012212548001D9F
:10081000016000BF254800680028FBD00020224965
:10082000086000BF214800680028FBD000BF00BF5F
:1008300000BF00BF00BFBFF34F8F00BF00BF00BFAE
:1008400017487C38006800F4E06019490843001D2F
:1008500013497C39086000BF00BF00BFBFF34F8F52
:1008600000BF00BF00BF00BF00BFFDE7FFF702FFF2
:1008700010BD00000C0100403805004004040010C9
:1008800020C50040488103008C56004018F5004008
:1008900058020010E40E0040409602400004004060
:1008A00088ED00E00012001004E5014000E4014082
:1008B0000000FA0510B52448006818B3002022494A
:1008C000086002220023214903C9FFF729FD012105
:1008D0004A401A430BD1002406E01D48015D1D4823
:1008E00004F052FC601CC4B2FF2CF6DB0AE00024CA
:1008F00006E01948015D174804F046FC601CC4B2CC
:10090000FF2CF6DB10483C300068E0B100200E49B7
:100910003C3108600D48D0E90020521C40F1000035
:100920000A49C1E900200222002303C9FFF7F8FCAD
:1009300001214A401A4303D107480849086002E0F0
:1009400003480649086010BD102100403000002017
:10095000B0090020B00B0020AF0A00203425004071
:1009600010B50446FFF7E1FD0548006810B12046C8
:1009700000F00AF80020024908600249086010BD32
:10098000280000202000002038B5044619480078CF
:1009900048B902222146184801F040FB1749087067
:1009A0000120144908701548007870B91248C168D0
:1009B00001F045FA6B461248124902680E4801F0F0
:1009C00098FD0D4801F0F0FC0BE00F490F4A891A21
:1009D000C908032242EA014008490A780CA103F041
:1009E000A5FC00BF00BF03F00DFB0028FBD100BF3A
:1009F00038BD00001000002048030020080000203F
:100A000028000020BC1B0020346D0000FC6C00009E
:100A10005769727465546F5344206572726F722007
:100A2000636F6465206672203D202564000000002D
:100A300010B5124C02202061606111A0A061134921
:100A4000E1614FF4007121620021A1626162E16203
:100A50000BA0A0640E49E164102121650021A1656D
:100A60006165E1650BA1E01DFFF7C7FC0AA1204607
:100A7000FFF7C3FC2020A07110BD000028B20120A8
:100A80005465726D696E616C00000000A0B20120B7
:100A9000A0B401205254540053454747455200002A
:100AA00010B501460A69CB689A4204D88C68641E66
:100AB000E41AA01801E0D41A601E10BD2DE9F04719
:100AC0000446894617464FF0000AE56800BFD4F88F
:100AD0001080A84503D9A8EB0500461E04E0A5EB4D
:100AE0000800401CA1680E1AA068401BB04201D942
:100AF000304601E0A068401B0646BE4201D23046A7
:100B000000E0384606466168481932464946FFF714
:100B10003DFCB244B144BF1B3544A068A84200D19B
:100B20000025E560002FD2D15046BDE8F0872DE9C1
:100B3000F047044689461546E668A068871BAF4221
:100B400008D9616888192A464946FFF71FFC7019C1
:100B5000E06010E0B8466168881942464946FFF7F0
:100B600015FCA5EB070809EB070142466068FFF793
:100B70000DFCC4F80C80BDE8F08702E008C8121F25
:100B800008C1002AFAD170477047002001E001C176
:100B9000121F002AFBD1704710B572B600BF03F0D8
:100BA0007FFC00BF00BF03F02DFA0028FBD100BF7F
:100BB00000BF1E491E4A891AC908012242EA0140A3
:100BC0001CA103F0A9FB00BF1D48006800F0010054
:100BD00000B100BE00BF1549154A891AC908022292
:100BE00042EA014017A103F097FB00BF00BF00BF1E
:100BF00000BF00BFBFF34F8F00BF00BF00BF104852
:100C0000E438006800F4E06012490843001D0C4914
:100C1000E439086000BF00BF00BFBFF34F8F00BFC3
:100C200000BF00BF00BF00BFFDE70000346D000043
:100C3000FC6C0000466174616C206572726F72001A
:100C4000F0ED00E053797374656D2072657365741F
:100C5000000000000000FA053EB5044600200090A8
:100C60000190029002946A46002144F20100FFF7CD
:100C700093FF3EBD2DE9F04707460E4614461F4838
:100C800090F8220010B90820BDE8F0871B4890F8C2
:100C90002200032801D01120F6E70CB90720F3E762
:100CA0000421164880F82210807AC0F3C00018B9D9
:100CB00071021248016101E0104806610F48C760E7
:100CC0008482C48200218183012C01DD522000E056
:100CD00051208146094801220169484604F0F0FA92
:100CE000054600BFA846B8F1000F04D000BF40463B
:100CF000FFF7B2FF00BF00BF0020C5E714AC012022
:100D00002DE9F04107460E4615462D4890F8220081
:100D100010B90820BDE8F081294890F82200032886
:100D200001D01120F6E70DB90720F3E7052124488B
:100D300080F82210807AC0F3C00018B971022048F0
:100D4000016101E01E4806611D48C7608582C582B9
:100D500000218183012D12D101220169582004F064
:100D6000AFFA044600BFA046B8F1000F04D000BFA0
:100D70004046FFF771FF00BF00BF0020CAE71048E0
:100D8000807A00F00700012807D10D48012201698F
:100D9000592004F095FA044605E001222946D7209F
:100DA00004F08EFA044600BFA046B8F1000F04D04C
:100DB00000BF4046FFF750FF00BF00BF0020A9E77B
:100DC00014AC0120064890F82200032805D00448FE
:100DD00090F8220008B1012070470020FCE70000D5
:100DE00014AC0120044890F82200032802DB0248DA
:100DF000001D70470020FCE714AC0120F0B587B05F
:100E000004460E463A4890F8220010B1082007B078
:100E1000F0BD5EB1E078FF2808D06078FF2805D0EB
:100E20002078FF2802D0A078FF2801D10720EEE724
:100E3000E0782F4981F85800084690F85870002053
:100E400000900346012211460190384602F0ECFE64
:100E500000BF00BF264991F8580002F0C8FF00BF4C
:100E6000244B0FCB03AD0FC5A0788DF80C00207874
:100E70008DF80D0060788DF80E0000231E4A03A93E
:100E80001E4802F03FFD054600BF2F4627B100BFB8
:100E90003846FFF7E1FE00BF00BF1548066001219C
:100EA00080F82210807A20F0070111488172807A40
:100EB00020F008010E488172002180F82310FF20E5
:100EC0000B4981F828000A2001F13803012228315A
:100ED00000900A4802F05AFD054600BF2F4627B190
:100EE00000BF3846FFF7B8FE00BF00BF00208EE706
:100EF00014AC0120E46A000055610000D46A0000CF
:100F00007CB5144890F8220008B908207CBD11482F
:100F100090F82200032801D01120F7E70E4C201D85
:100F200003F05CFE00BF0B4890F8584000250020FD
:100F300000902B46024601460190204602F074FEC6
:100F400000BF0021034880F8231080F82210002001
:100F5000DCE7000014AC0120D46A000000B50246B2
:100F600000F006F800BD00B5024600F00BF800BD29
:100F700072B603480068401C0149086070470000D1
:100F80006000002004480068401E034908600846CD
:100F9000006800B962B6704760000020002114E0CC
:100FA0000C48D0F81024012308E000BFD068007975
:100FB000884201D1002303E0D0680268002AF4D1FE
:100FC00000BF0BB108467047491C0A29E8DB4FF007
:100FD000FF30F8E708AE012030B50246087A0B78FA
:100FE00033B1012B05D0022B05D0032B14D101E026
:100FF00000BF00BF00BF4B7800EB4004084D2D68D8
:1010000005EB84042372002300EB4004044D2D689B
:1010100005EB8404A37200E000BF00BF30BD0000F8
:101020004000002001460A46906970472DE9FE43C2
:1010300080460C4691464546AE692869B0F5007F6A
:1010400002D00620BDE8FE831648006808B11120D2
:10105000F8E7C6F81890B4601248056000271249F6
:1010600005F11400FFF7CAFE07464FB944B905F071
:1010700025F80E48007808B9002000E00D2007464A
:1010800077B100200749086054B1094A07CA8DE8C2
:101090000700B069029069464046B268904700BFB9
:1010A0003846CFE768000020B953000064000020F4
:1010B000246B000030B503461D4611B101290ED145
:1010C00005E014460CB100202070002030BD0AB9A4
:1010D0000720FBE71446281D20600020F6E700BF2C
:1010E00000BF0620F2E700002DE9FE4307460D464B
:1010F000B846D8F8184000261B480068404502D082
:101100001120BDE8FE83FFF75DFE08B11120F8E76E
:1011100095E80700C4E90412E060AB889AB2296838
:10112000A868FFF7A7FD064656B9A06840B904F0C5
:10113000C5FF0E48007808B9002000E00D200646E3
:10114000A06870B16EB10A4A07CA8DE8070004F1C1
:101150000C000190A069029069463846A268904749
:1011600000BF3046CDE7000068000020640000208A
:101170003C6B0000FEB506463746BD691348006863
:10118000B84201D01120FEBDFFF71CFE08B11120AE
:10119000F9E7FFF7B5FE044614B900200B490860D3
:1011A000A86880B10A4A07CA8DE807000CB101207F
:1011B00000E000208DF80100A869029069463046E1
:1011C000AA68904700BF2046DDE7000068000020C5
:1011D000306B00002DE9FE4307460D46B846D8F8AF
:1011E000184000261B480068404502D01120BDE889
:1011F000FE83FFF7E7FD08B11120F8E795E8070047
:10120000C4E90412E060AB889AB22968A868FFF7C5
:1012100077FD064656B9A06840B904F04FFF0E4866
:10122000007808B9002000E00D200646A06870B1E3
:101230006EB10A4A07CA8DE8070004F10C0001905C
:10124000A069029069463846A268904700BF3046C0
:10125000CDE700006800002064000020486B00001B
:101260002DE9F84F04460D461646A71C4FF001081D
:101270000020FFF773FE3048406828602E48406821
:101280002D498968411A2D480068401CA0EB0109CE
:1012900015E001212A4802F0E3F901F0A1FF82469E
:1012A0005146274802F0DCF9234840682249896802
:1012B000411A22480068401CA0EB010900BF4F45BD
:1012C000E7D8B8F1000F30D00021009176B1009935
:1012D00021F00301491C0091009921F00401091D2E
:1012E0000091009964F3891100910DE0009921F0BB
:1012F0000301891C0091009921F00401091D00914E
:10130000009964F39F5100910B4949680B4A126898
:101310001140094A0C3202EB810000990160064934
:10132000496839440C3A516000BF0020FFF71BFEAA
:101330004046BDE8F88F000008AE0120880000207C
:1013400024B2012070B504460D460A2D03D10D21AB
:101350002046FFF7F7FFA168481CA06020684554AD
:10136000D4E90110884202D3204602F03DFB70BD53
:101370000448806803494968884201D101207047C8
:101380000020FCE708AE012070B504460D460020A1
:10139000E070401EE0622946204602F067F808B17E
:1013A000042070BD04F22E2001F08CFE4AF6552177
:1013B000884201D00320F4E794F83000E92807D0F0
:1013C00094F83000EB2817D13220005D902813D11B
:1013D00004F1660001F06AFE20F07F400749884270
:1013E00001D10020DDE704F1820001F05FFE044935
:1013F000884201D10020D4E70220D2E746415400C0
:1014000046415433024600E0521C107810B1107867
:101410008842F9D11078704770B505460DB9094C6E
:1014200001E0084C083409E0204601F015FE0646AC
:1014300006B904E028467168884700BFF4E700BF9A
:1014400070BD000008AC012010B504462CB9012085
:10145000064948700020FFF7DFFF012C04D101206E
:1014600002498870FFF7D8FF10BD000000AC0120D2
:101470000246891E5069801E884201D800207047AC
:101480005389906A01FB0300F9E72DE9F047824692
:101490008946DAF80040B9F1000F06D1E76817B1C4
:1014A0006069B84215D8012713E04946504601F05B
:1014B0004FFC0646022E02D20120BDE8F087701CC8
:1014C00008B93046F9E76069B04201D93046F4E71F
:1014D0004F463D4600BF6D1C6069A84204D80225F6
:1014E000BD4201D90020E8E72946504601F030FC12
:1014F000064606B909E0012E01D0701C08B9304635
:10150000DBE7BD42E7D10020D7E700BF00BF4FF0C7
:10151000FF322946204603F0D5FC8046B8F1000F83
:1015200008D1B9F1000F05D02A464946204603F0FC
:10153000C9FC8046B8F1000F0DD1E560D4E9041074
:10154000801E814202D22069401E2061207940F035
:101550000100207107E0B8F1010F02D14FF0FF3018
:1015600000E0012005462846A7E700002DE9F05FCE
:1015700082468846D8F800700AF120050B22202107
:10158000284601F0E8FE0020814606464FF0080B91
:1015900000BF3046761C3C5C202C00DC36E02F2C53
:1015A00001D05C2C08D100E0761CB85D2F28FBD060
:1015B000B85D5C28F8D029E02E2C01D0D9450CD399
:1015C000BBF10B0F01D02E2C02D00620BDE8F09FFE
:1015D0004FF008094FF00B0BDBE7802C03DBA4F185
:1015E000800015490C5C214614A0FFF70BFF08B1E1
:1015F0000620EBE7612C04DB7A2C02DCA4F120004E
:10160000C4B2484609F101092C54C2E700BFB81919
:10161000C8F80000B9F1000F01D10620D6E72878FC
:10162000E52801D105202870202C01DC042000E0F1
:101630000020E8720020C9E7E6690000222A2B2C6E
:101640003A3B3C3D3E3F5B5D7C7F000010B5154959
:101650001548FEF7D2FE15A11348FEF7BBFE04465F
:1016600004222146134800F0D9FC134908700846AB
:10167000007858B11149124A891AC908032242EA6E
:1016800001400D490A780FA102F050FE00BF00BFD3
:1016900002F0B8FC0028FBD100BF01F02BFD02488E
:1016A00010BD000000000020A10900202E747874F5
:1016B000000000004803002008000020346D0000F6
:1016C000FC6C00004372656174652066696C65207E
:1016D000616C726561647920657869737465642CE6
:1016E000206572726F7220636F6465203D202564EF
:1016F0000000000020BF70472DE9F04104460E466F
:10170000D4F800800021204600F04AF90546EDB9E2
:10171000002700BF4046A16901F0A8FE054605B1BB
:1017200013E0E0690078E52802D0E069007820B98C
:10173000781C0746B04201D107E00027012120466E
:1017400000F040F80546002DE4D000BF042D00D184
:1017500007252846BDE8F0812DE9F04104462768B9
:101760000021204600F01CF9054615B12846BDE8C9
:10177000F08100BF3846A16901F078FE054605B149
:101780001DE0E06906780EB9042518E0E069C07A2A
:1017900000F03F00A071E069C07A00F0080038B99D
:1017A0000B2204F12001E06901F0B6FD00B906E06A
:1017B0000021204600F006F80546002DDAD000BFD3
:1017C0002846D4E72DE9F047044689462568206974
:1017D00000F12007A06910B1B7F5001F02D3042063
:1017E000BDE8F087C7F30800002868D1A069401C55
:1017F000A061606938B92889B0EB571F5FD8002015
:10180000A0610420ECE76889401E00EA5720002808
:1018100055D12046616901F09BFA0646012E01D898
:101820000220DDE7701C08B90120D9E76869B042E1
:101830003FD8B9F1000F03D10020A0610420CFE709
:1018400020466169FFF721FE06460EB90720C7E76B
:10185000012E01D10220C3E7701C08B90120BFE7A7
:10186000284604F067FF08B10120B9E74FF4007281
:10187000002105F1300001F06EFD4FF00008314607
:101880002846FFF7F5FDE8620CE00120E8702846E5
:1018900004F050FF08B10120A2E708F10108E86A4E
:1018A000401CE86268894045EFD8E86AA0EB080070
:1018B000E862666131462846FFF7DAFDA0612761DC
:1018C000C7F3080105F130000844E061002087E714
:1018D0002DE9F047044688460425D4F8009027E017
:1018E0004846A16901F0C2FD054605B123E0E06963
:1018F00006780EB904251EE0E069C07A00F03F07C3
:10190000A771E52E0DD02E2E0BD00F2F09D027F06A
:101910002000082801D1012000E00020404500D12E
:1019200009E000212046FFF74DFF054605B102E022
:10193000A0690028D4D100BF0DB10020A0612846C5
:10194000BDE8F08770B50446266801212046FFF700
:10195000D3FE054695B93046A16901F087FD0546DD
:1019600065B920220021E06901F0F5FC0B2204F1A9
:101970002001E06901F0E2FC0120F070284670BD12
:1019800070B5044626683046A16901F06FFD054632
:1019900025B9E520E16908700120F070284670BD86
:1019A0002DE9F04104460D462668B5F5001F02D228
:1019B00005F01F0010B10220BDE8F0812561A76885
:1019C0001FB93078032800DB776A47B93089B0EB5C
:1019D000551F01D80220EFE7706AA0611CE07089F2
:1019E0004FEA402811E03946204601F0B1F9074698
:1019F000781C08B90120DFE7022F02D37069B842D2
:101A000001D80220D8E7A5EB08054545EBD23946B9
:101A10003046FFF72DFDA0616761A06908B902207B
:101A2000CAE7A06900EB5520A061C5F3080106F1E3
:101A300030000844E0610020BEE700002DE9F041DD
:101A400004463E480078844202DB0320BDE8F08172
:101A500004EB44003A49096851F8200008B9032012
:101A6000F4E704EB44003649096801EB8000407A52
:101A700000F0010038B904EB44003149096801EB7A
:101A80008000407AE2E704EB44002D49096801EB4D
:101A90008000406838B92B4804EB4401284A12689A
:101AA00002EB81014860012004EB4401244A1268E2
:101AB00002EB8101887204EB44002149096851F866
:101AC0002060214F306822463946036830469847E7
:101AD000054600BF4DBB07E004EB4401184A1268FD
:101AE00002EB81014868804704EB4400144909680F
:101AF00001EB8000807A0028EED104EB440010490D
:101B0000096801EB8000007A78B904EB44000C49C5
:101B1000096801EB8000407A20F0010004EB4401E9
:101B2000074A126802EB8101487204EB4400044941
:101B3000096801EB8000407A88E70000440000203B
:101B400040000020F5160000D90F0000F8B504464B
:101B50000E4615462A480078844201DB0420F8BD71
:101B600026B1012E1BD0022E45D12EE0012000907F
:101B700000BF04EB4401234A126852F821006A4670
:101B8000002101F012FE074617B1112F00D003E02B
:101B90009DF800000028ECD100BF0020DFE704EB37
:101BA00044001849096851F8200008B90320D6E715
:101BB0002F4604EB4401134A126852F8210001F049
:101BC000EDFD006838600020C9E704EB44000D49D2
:101BD000096851F8200008B90320C0E72F4604EB3C
:101BE0004401084A126852F8210001F0D7FD8088AC
:101BF00038800020B3E700BF00BF0120AFE700003E
:101C000044000020400000202DE9FE4F0446884695
:101C100091461E462F480078844200DA16B9042007
:101C2000BDE8FE8F04EB44002B49096851F8200001
:101C300048B104EB44002849096801EB8000407A70
:101C400000F0010008B10320EAE7CDF8009001960A
:101C5000CDF80880012004EB44011F4A126802EB12
:101C60008101887204EB44001B49096851F8205037
:101C70006F46286841692846884700683968884265
:101C800001D8072004E02868394682682846904732
:101C90008246BAF1000F1BD107E004EB44010E4A63
:101CA000126802EB81014868804704EB44000A494E
:101CB000096801EB8000807A0028EED104EB440033
:101CC0000549096801EB8000007A08B90020A7E700
:101CD0000120A5E7440000204000002001460748FD
:101CE0000078814201DB0120704701EB4100044A8A
:101CF000126802EB8000407AF6E700004400002002
:101D0000400000202DE9FE4F0446884691461E46BD
:101D100035480078844200DA16B90420BDE8FE8F09
:101D200004EB44003149096851F8200048B104EB44
:101D300044002E49096801EB8000407A00F0010060
:101D400008B10320EAE704EB44002849096801EBE5
:101D50008000407A00F0040008B10220DEE7CDF8F0
:101D600000900196CDF80880012104EB44001F4A41
:101D7000126802EB8000817204EB44001B49096881
:101D800051F820506F462868416928468847006806
:101D90003968884201D8072004E028683946C268BB
:101DA000284690478246BAF1000F1BD107E004EBAA
:101DB00044010E4A126802EB81014868804704EB37
:101DC00044000A49096801EB8000807A0028EED1BE
:101DD00004EB44000549096801EB8000007A08B96A
:101DE00000209BE7012099E74400002040000020EC
:101DF000024A1060024B197070470000400000203A
:101E00004400002010B50021034801F03FFC0446C7
:101E100084F3100010BD000024B2012038B505463F
:101E2000284600F0C1FA04463CB96946284604F049
:101E300093FD04460CB900202860204638BD2DE9EA
:101E4000F84F04460E466946204604F085FD82465A
:101E5000BAF1000F03D1607CB0F1000A02D0504605
:101E6000BDE8F88FE068B04204D2207C00F00200A8
:101E700000B9E668D4F814904FF00008C4F8148054
:101E8000002E68D0009840894702B9F1000F11D0A8
:101E9000701EB0FBF7F1A9F10100B0FBF7F0814231
:101EA00008D3A9F10100791E884360616069361A80
:101EB000A56912E0A5687DB900212046FFF7E5FA83
:101EC0000546012D02D102206074C9E7681C10B9D3
:101ED00001206074C4E7A560A561002D3BD024E01B
:101EE000F61B606938446061207C00F0020040B15C
:101EF00000BF29462046FFF7C8FA054635B9002637
:101F000015E02946204600F023FF0546681C10B95D
:101F100001206074A4E7012D03D900984069A8420C
:101F200002D8022060749BE7A561BE42D8D800BFEA
:101F3000606930446061C6F3080060B129460098CA
:101F4000FFF796FA8046B8F1000F02D102206074C4
:101F500086E708EB5628E1686069884205D9606920
:101F6000E060207C40F040002074A08AC0F30800AC
:101F700020B3E069404521D0207C00F0800078B19A
:101F8000E26900994878012304F12801FFF7BAFEBD
:101F900010B10120607463E7207C00F07F002074A2
:101FA000009948780123424604F12801FFF72CFEEE
:101FB00010B10120607453E7C4F81C8050464FE70D
:101FC000F7B582B016460398019001A800F030FFE3
:101FD0000546002D02DA0B2005B0F0BD0E4850F882
:101FE00025400CB100202070029810B10020029909
:101FF00008700949029841F82500029808B1012E9D
:1020000001D00020E8E7002202A903A800F0BCFCF0
:1020100007463846E0E70000380000202DE9F74F7A
:102020008EB0044616461CB9092011B0BDE8F08FE9
:1020300006F03F06324602A90FA800F0A5FC0546AF
:10204000002D6FD10298039003A80F9900F02FFE86
:1020500005462DB99DF8370000F0800000B1062537
:1020600006F01C00002855D045B1042D03D103A86B
:10207000FFF768FC054646F008060AE09DF81200E6
:1020800000F0110008B1072503E006F0040000B1DC
:102090000825002D50D106F0080000284CD05A48E1
:1020A00001900A9901F10E00019904F045FA0A998C
:1020B00001F11600019904F03FFA20200A99C87234
:1020C0000A99029800F0DFFF814600220A990298DF
:1020D00004F020FA0A9901F11C00002104F02CFA06
:1020E00001200299C870B9F1000F25D00298C06A8A
:1020F00001900022494603A802F0A6FF0546DDB97B
:10210000DDE9011001F0B2F90546A9F101000299DB
:10211000C86011E085B99DF8120000F0100010B100
:10212000042509E05DE006F0020028B19DF81200E8
:1021300000F0010000B107254DB906F0080008B114
:1021400046F040060298C06A20620A986062002D3C
:1021500055D10A99029800F096FFA0600A9901F102
:102160001C0000F0A3FFE060029820600298C08885
:10217000A080267400206074E06160614FF40072FA
:10218000002104F1280001F0E6F806F0200040B339
:10219000E06830B3E0686061029840894FEA402A05
:1021A000A768D4F80C800CE03946204600F0D0FD3A
:1021B0000746012F00D80225781C00B90125A8EB9D
:1021C0000A080DB9D045EFD8A76155B9C8F3080082
:1021D00038B139460298FFF74BF9B0F1000B01D145
:1021E00002250CE00BEB5820E061E2690299487887
:1021F000012304F12801FFF707FD00B101250DB10E
:1022000000202060284610E7000021542DE9FF4FF0
:1022100085B0044615469A46DDF818B00020CAF885
:10222000000003A9204604F097FB0490049810B91D
:10223000607C049018B1049809B0BDE8F08F207C50
:1022400000F0010008B90720F6E76169E068401A6C
:1022500001900198854200D9019DA0E0A08AC0F3B9
:10226000080000287ED103984089401E616900EA79
:102270005129B9F1000F17D1606910B9A068029017
:1022800004E02046A16900F063FD02900298022854
:1022900002D202206074CFE70298401C10B90120DE
:1022A0006074C9E70298A061A1690398FFF7E0F89C
:1022B000064616B902206074BEE74E444FEA552820
:1022C000B8F1000F29D009EB080003994989884229
:1022D00003D903984089A0EB09080399487843463D
:1022E00032465946FFF790FC10B101206074A3E715
:1022F000207C00F0800068B1E069801B404509D275
:10230000E169891B0BEB41204FF4007204F12801B5
:1023100001F014F84FEA482737E0E069B04220D0D6
:10232000207C00F0800078B1E269039948780123AD
:1023300004F12801FFF7E6FC10B1012060747BE78F
:10234000207C00F07F0020740399487801233246F6
:1023500004F12801FFF758FC18B1012060746BE705
:1023600000E0E661A08AC0F30800C0F50077AF4244
:1023700000D92F46A08AC0F3080204F128001118E2
:102380003A46584600F0DAFF00BFBB446069384463
:102390006061DAF800003844CAF80000ED1B002D37
:1023A0007FF45CAF002047E7F8B504466946204655
:1023B00004F0D2FA0646002E42D1207C00F0400004
:1023C00000283DD0207C00F0800070B1E2690099C7
:1023D0004878012304F12801FFF794FC08B101209B
:1023E000F8BD207C00F07F002074164F216A009811
:1023F00001F03CF806461EBB656AE87A40F0200012
:10240000E8722946A268206804F084F805F11C00EF
:10241000E16804F091F8394605F1160004F08CF8F3
:10242000002105F1120004F093F801200099C87012
:10243000009804F037F90646207C00F0BF002074B5
:102440003046CDE70000215431B598B00025022276
:1024500001A918A800F098FA044601980D90002CE4
:1024600044D10DA8189900F022FC044600BF002CAE
:102470003CD19DF85F0000F0800008B1062405E023
:102480009DF83A0000F0010000B10724E4B9149966
:10249000019800F0F8FD05469DF83A0000F01000A4
:1024A00090B1019802900495002102A8FFF778FAF4
:1024B00004464CB9002102A8FFF70AFA044604B901
:1024C0000724042C00D1002484B90DA8FFF758FA82
:1024D000044634B92DB1002229460DA802F0B4FDFE
:1024E00004461CB9019804F0DDF80446204619B0F2
:1024F00030BD2DE9FF4F83B0044615469B46049836
:1025000000900020CBF8000001A9204604F024FA36
:102510000290029810B9607C029018B1029807B03E
:10252000BDE8F08F207C00F0020008B90720F6E734
:1025300000BF606928446169884202D26069C0F1C5
:10254000FF35BBE0A08AC0F30800002875D10198D0
:102550004089401E616900EA512ABAF1000F1ED17C
:10256000606938B9A76857B900212046FEF78DFF8A
:10257000074604E02046A169FEF787FF074607B932
:102580009FE0012F02D102206074C8E7781C10B9C7
:1025900001206074C3E7A761A06800B9A760207C30
:1025A00000F0800078B1E26901994878012304F1D4
:1025B0002801FFF7A7FB10B101206074AFE7207C72
:1025C00000F07F002074A1690198FEF751FF0646D4
:1025D00016B902206074A2E756444FEA5529B9F1B2
:1025E000000F2BD00AEB090001994989884203D9D1
:1025F00001984089A0EB0A09019948784B46324678
:102600000099FFF77FFB10B10120607487E7E06954
:10261000801B48450ED2E069801B009A02EB4021E6
:102620004FF4007204F1280000F088FE207C00F0D6
:102630007F0020744FEA49282BE013E0E069B042A4
:102640000FD0E168606988420BD201994878012374
:10265000324604F12801FFF7D7FA10B10120607467
:102660005DE7E661A08AC0F30800C0F50078A845E0
:1026700000D9A846A18AC1F3080204F12801501824
:102680004246009900F05AFE207C40F08000207401
:1026900000BF009840440090606940446061E16878
:1026A0006069884201D9606900E0E068E060DBF8B9
:1026B00000004044CBF80000A5EB0805002D7FF496
:1026C00041AF00BF207C40F040002074002026E78E
:1026D00070B5012601212B48FFF78AFB2A492B4AB6
:1026E000891AC908032242EA014029A101F014FE17
:1026F00000BF00BF01F086FC0028FBD100BF00BF77
:102700000020FFF79BF906461F49204A891AC9088D
:10271000032242EA014026A101F0FEFD00BF00BFF6
:1027200001F070FC0028FBD100BFC820FDF7E4FEDB
:10273000002EE5D1FDF7DBFE234800684169224801
:10274000884740684FF48011B1FBF0F41E480068E0
:1027500041691D4888470068B0FBF4F50A490B4AF7
:10276000891AC908032242EA01402A4617A101F04A
:10277000DDFD00BF00BF01F045FC0028FBD100BF1C
:1027800070BD000014000020346D0000FC6C0000DF
:10279000496E697469616C697A696E6720646973EE
:1027A0006B20302028534443292E2E2E0000000099
:1027B00077616974696E672053446361726420694C
:1027C0006E69742E2E2E00009869000043617061BE
:1027D000636974793A202564204D42001CB50022BB
:1027E0004BA14C48FFF7ECFB04224BA14D48FFF7EF
:1027F00015FC4D4908700846007800281FD10222B8
:1028000045A14848FFF70AFC01AB142247A14548FF
:10281000FFF76FFE4348FFF701FB4A494A4A891A0E
:10282000C908032242EA014040A248A101F07EFD0E
:1028300000BF00BF01F0E6FB0028FBD100BF012272
:1028400035A13848FFF7EAFB374908706B4632225A
:1028500043493448FFF7DAFC3248FFF7DFFA002437
:102860004FE03F48005D3F4908553D48005D2C283A
:1028700046D105200BE03A49095C30393A4A1268E2
:1028800002EB820201EB4201374A1160401CA04278
:10289000F1DB2C492C4A891AC908032242EA01407B
:1028A00031490A6831A101F041FD601D042111E0A8
:1028B0002B4A125C3AB12A4A125C1B2A03D0284ADE
:1028C000125C392A00DD07E0254A125C2A4B5A5473
:1028D000401C491C0028EBDC00BF1A491A4A891A1F
:1028E000C908032242EA0140234A24A101F01EFD47
:1028F00000BF00BF01F086FB0028FBD100BF02E053
:10290000641C002CADDA00BF174800681CBD000035
:102910000000000018010020434F4E4649472E5446
:10292000585400004803002008000020426F7564DE
:102930003D3932313630302C4C6F675F30303031BA
:1029400000000000346D0000FC6C0000446566610E
:10295000756C745F434F4E464947203D20257300F8
:10296000D0000020020100200C000020726561648C
:10297000426F75643D256400000000204E65787448
:102980005061636B3D2573002DE9F74F8AB000213C
:102990000B9801600A9800F04BFA089008980028FC
:1029A00003DA0B200DB0BDE8F08FB149089851F85B
:1029B00020400CB90C20F5E70B9804600C9800F04F
:1029C000FE000C90207878B16078FFF787F9814697
:1029D00009F0010040B90C9820B109F0040008B1D9
:1029E0000A20DFE70020DDE70020207008986070F3
:1029F0006078FFF723F8814609F0010008B1032051
:102A0000D0E70C9820B109F0040008B10A20C9E70A
:102A1000002739462046FEF7B7FC0546022D01D0B7
:102A20002EDA2DE0002614E04FF4DF7000EB0611E3
:102A300004F13000084409900998007920B1099800
:102A4000083000F033FB00E0002002A941F8260026
:102A5000761C042EE8D3002606B1761E00BF02A81D
:102A600050F8267027B139462046FEF78DFC00E06D
:102A700003200546022D03DB701C06460428EED316
:102A8000042D01D101208DE7022D01DB0D2089E706
:102A900004F13B0000F016FBB0F5007F01D00D20E3
:102AA00080E704F1460000F00DFB8046B8F1000F0E
:102AB00004D104F1540000F0F9FA8046C4F81880FB
:102AC0004020005DA070A078012804D0A0780228E2
:102AD00001D00D2066E7A07808FB00F83D20005DDE
:102AE0006081608918B16089411E084008B10D20DD
:102AF00058E704F1410000F0E5FA2081207A00F067
:102B00000F0008B10D204DE704F1430000F0DAFAA0
:102B10008246BAF1000F04D104F1500000F0C6FA69
:102B2000824604F13E0000F0CDFA0190019808B908
:102B30000D2037E701984044218900EB11100790E0
:102B40000798824501D20D202CE70798AAEB0000D8
:102B50006189B0FBF1FBBBF1000F01D10D2021E732
:102B600003254FF6F570834500D8022540F6F57031
:102B7000834500D801250BF102006061E7610198EF
:102B80003844206207983844A062032D13D104F121
:102B90005A0000F097FA08B10D2003E7208908B128
:102BA0000D20FFE604F15C0000F080FA60626069CD
:102BB0008000069014E0208908B90D20F2E6206A12
:102BC00040446062022D02D16069400007E0207D30
:102BD00000F00100616901EB410100EB510006903A
:102BE000A169069800F2FF10B1EB502F01D20D2021
:102BF000D8E64FF0FF302061E06080202071032D87
:102C00002CD104F1600000F05DFA012826D1791C76
:102C1000204600F02BFC08BB0020207104F22E207F
:102C200000F050FA4AF65521884217D104F13000DD
:102C300000F03CFA0F49884210D104F5057000F00D
:102C400035FA0D49884209D104F5067000F02EFAD4
:102C5000206104F5077000F029FAE060257007484C
:102C60000088401C80B205490880E080002099E679
:102C70003800002052526141727241613C000020D4
:102C800010B50446E07FFF2808D0A07F18B1E07F90
:102C900001F038F802E0E07F01F09CF80020607756
:102CA000207204F10800D4E90021904710BD2DE9FD
:102CB000F34104462646D6F8008002E00198401C05
:102CC0000190019800782F28F8D0019800785C28AE
:102CD000F4D00020B06001980078202808D280212C
:102CE0002B20015500212046FEF75AFE05462CE018
:102CF00000BF01A92046FEF739FC054605B123E0D7
:102D00002046FEF729FD05462B20075D3DB1042D29
:102D100004D100BF07F0040000B9052514E007F056
:102D2000040000B110E0B07900F0100008B90525EA
:102D30000AE0208AC0F3080208F13000111840466A
:102D400000F0A1F9B060D4E700BF2846BDE8FC81DF
:102D50002DE9F04781460C46D9F80050022C02D3E9
:102D60006869A04202D84FF001085EE04FF0FF38DA
:102D70002878012804D002282CD0032851D13CE027
:102D8000264606EB5606286A00EB5621284600F038
:102D90006DFB00B148E03046761CC0F3080105F138
:102DA0003000475C286A00EB5621284600F05EFBA5
:102DB00000B139E0C6F3080105F13000405C47EA94
:102DC000002704F0010008B1380901E0C7F30B0047
:102DD000804629E0286A00EB1421284600F046FBD3
:102DE00000B121E040F2FF1101EA440205F1300197
:102DF000501800F067F9804616E0286A00EBD411FD
:102E0000284600F033FB00B10EE040F2FF1101EA6A
:102E1000840205F13001501800F048F920F07048A4
:102E200002E04FF0010800BF00BF4046BDE8F08758
:102E300070B502464FF0FF301568DDB1116800E053
:102E4000491C0D78212D02D30D783A2DF8D10D783B
:102E50003A2D0ED1146814F8015BA5F130030A2B4A
:102E600006D28C4204D11BB918464D1C2946156068
:102E700070BD002000BFFBE72DE9FC5F83460E46D6
:102E800091461F46DDE90C45002E01DA704200E054
:102E9000304682464FF0010803E09AFBF9FA08F148
:102EA0000108CA45F9DA474500D9B84634B1002EC1
:102EB00003DB05F00400042800D1641E05F00200C5
:102EC00000B167B105F0010048B944B104E0641EE7
:102ED00020215846FEF736FA0CB1A045F7D3002E54
:102EE00005DA76422D215846FEF72CFA07E005F068
:102EF0000400042803D12B215846FEF723FA05F0DD
:102F0000020002280DD105F0010050B94FB944B1BB
:102F100004E0641E30215846FEF714FA0CB1A045B7
:102F2000F7D33B464A4631465846CDE9004503F0C3
:102F3000B7FCBDE8FC9F30B5024600201378C3F310
:102F40008003D3B1137803F00303012B02D0022BCB
:102F500010D107E01388C3F383139B1C0C68234430
:102F60000B6008E00B680225146805EB94542344B9
:102F70000B6000E000BF00BF012030BD70B505460A
:102F80000C464FF48C71284601F0D3FB38B14FF456
:102F90008C71284601F0D4FB2046FFF771FE70BD0E
:102FA0002DE9F04781460C4616464FF480374FF422
:102FB000A078002520E03946484601F0AFFBA8B1D3
:102FC0004146484601F0A1FB80B13946484601F030
:102FD00096FB3946484601F09BFB4146484601F0C6
:102FE00087FBE8B21B4A52F8241088477F0008F19B
:102FF00004001FFA80F86D1CB542DCD34FF48078D2
:103000000121484601F08AFB68B14146484601F07B
:103010007CFB40B14146484601F06AFB0D4850F840
:103020002410042088474FF482780221484601F09A
:1030300075FB68B14146484601F067FB40B1414627
:10304000484601F055FB034850F8241005208847F6
:10305000BDE8F087580000200146086808B1026802
:103060000A607047026803E08A4200D17047126824
:10307000002AF9D103680BB1036800E000230B605C
:10308000016000BFF2E770B505460C4604F11A0076
:1030900000F018F806462878032805D104F114003A
:1030A00000F010F846EA0046304670BD0146C87888
:1030B0008A7842EA00204A7842EA00200A7842EA06
:1030C00000207047014648780A7842EA002070479D
:1030D00070B500F0C7FB044600BF254625B100BF10
:1030E0002846FDF7B9FD00BF00BF002000F0DCFB63
:1030F00070BD000008B528492848FDF77EF928482A
:10310000C079401C2649C8710846C0793A2805D1C3
:103110003020C87108468079401C88712048807929
:103120003A2806D130201E49887108464079401C53
:1031300048711B4840793A2806D130201849487117
:1031400008460079401C0871154800793A2805D1D5
:1031500030201349087148718871C87111A0FFF7B8
:1031600073F904220FA11248FEF758FF11490870A5
:1031700002220CA10E48FEF751FF09490748FDF74E
:1031800029F96B46142205490948FFF7B2F90848A6
:10319000FEF744FE08BD0000020100208C0500205F
:1031A00000000020434F4E4649472E54585400001B
:1031B000480300200800002070B54FF48041002033
:1031C00001F02EF9044600BF254625B100BF284670
:1031D000FDF742FD00BF00BF00F000FF70BD000022
:1031E0002DE9FF4100272E4800F033FA2C48001F3C
:1031F00000F02FFA2B48806803902B48056803984D
:10320000284028490C3101EB800800BF03A9404643
:10321000FFF791FE30B10398284022490C3101EBB1
:10322000800800E000E0F1E700BF00240AE0039816
:10323000411C284003911B490C3151F820004DF8E6
:103240002400641C022CF2D3009800F00300012833
:103250000DD0022814D1BDF806700421009801EBAE
:103260009050401E039901EB9000039009E0BDF8D7
:1032700006700098C0F3831003990844039000E09F
:1032800000BF00BF0648001F00F0DCF9064616B17B
:10329000044903988860384604B0BDE8F081000016
:1032A00020B2012008AE012088000020FFF784FF33
:1032B000FDF74AF9FDF70CF9FFF70AFF01F086FF69
:1032C000FFF706FAFFF78AFA0446204603F05CFA95
:1032D000FEF7BCF9054601F06DFF14E001F08EFE2B
:1032E00009480068012802D12846FDF739FBFDF79F
:1032F000BFF810B905A001F085FDFDF7D1F810B9B0
:10330000284601F07FFDE9E720000020434F4E46AC
:1033100049472E5458540000F0B503461D460C464C
:10332000002000BF15F8017B14F801CBA7EB0C00BF
:10333000561E321E01D00028F4D0F0BD30B5034631
:103340000C463AB100BF14F8015B03F8015B551E4F
:103350002A1EF8D130BD10B5034600BF03F8011B8B
:10336000541E221EFAD110BD2DE9FF4F87B004462E
:1033700091461E46A2462546BAF806009AF8051060
:103380004843001F0690BAF806B0301DB0FBFBF0B2
:103390000590301DB0FBFBF10BFB11000490D9F838
:1033A000000081190698814202D90698801B01E02D
:1033B000D9F800000746C9F8007003E02D680598A9
:1033C000401E059005980028F8D103900498ABEBB7
:1033D0000008B84501D9384600E04046804623E061
:1033E0000399089808440290281D04990844019004
:1033F000149828B14246DDE90110FCF7C7FF04E04C
:103400004246DDE90101FCF7C1FF002004902D6870
:10341000A7EB0807039840440390BB4501D9384601
:1034200000E05846804600BF002FD9D10BB0BDE860
:10343000F08F000070B503460C469CB101F014F803
:10344000054600220AE0084800EB820108881E6851
:10345000B04202D11A60002070BD521CAA42F2D3C1
:103460000520F9E70020F7E70000000070B50446EA
:103470000D460026E06AA84210D0204603F05AF913
:1034800006465EB9607801232A4604F13001FEF752
:10349000BBFB10B14FF0FF350126E562304670BD31
:1034A0000D4802684FF08050D0F83411082A11D12D
:1034B00031B1012906D0022906D0032908D105E03F
:1034C000012070470020FCE70020FAE70020F8E721
:1034D0000020F6E70020F4E7300100100D480268F4
:1034E0004FF08050D0F83411082A11D131B10129A0
:1034F00006D0022906D0032908D105E00120704733
:103500000020FCE70020FAE70020F8E70020F6E7BB
:103510000020F4E7300100100D4802684FF08050A1
:10352000D0F83411082A11D131B1012906D002296D
:1035300006D0032908D105E0012070470020FCE7F0
:103540000020FAE70020F8E70020F6E70020F4E783
:10355000300100100D4802684FF08050D0F834114F
:10356000082A11D131B1012906D0022906D0032938
:1035700008D105E0012070470120FCE70120FAE7AF
:103580000120F8E70120F6E70020F4E73001001001
:103590000D4802684FF08050D0F83411082A11D13C
:1035A00031B1012906D0022906D0032908D105E04E
:1035B000012070470120FCE70120FAE70120F8E72D
:1035C0000120F6E70020F4E7300100100D48026802
:1035D0004FF08050D0F83411082A11D131B10129AF
:1035E00006D0022906D0032908D105E00120704742
:1035F0000120FCE70120FAE70120F8E70120F6E7C7
:103600000020F4E7300100100D4802684FF08050B0
:10361000D0F83411082A11D131B1012906D002297C
:1036200006D0032908D105E0012070470020FCE7FF
:103630000020FAE70020F8E70020F6E70020F4E792
:103640003001001010B504460021204600F013F8A8
:1036500010BD10B504460121204600F022F810BD2F
:10366000F8B504460D466A4629462046FCF707FE93
:1036700006460098F8BDF8B504460D466A46294648
:103680002046FCF7E2FD06463046F8BDF8B5044694
:103690000D466A4629462046FCF7BEFD06463046E2
:1036A000F8BDF8B504460D466A4629462046FCF7A3
:1036B000BFFD06460098F8BDF8B504460D466A46BB
:1036C00029462046FCF7E8FD06460098F8BD70B58F
:1036D000044600260020FDF741FC20680068616870
:1036E000884215D920680068401E22681060017861
:1036F000204600F02FF80646207A21680978401A03
:10370000C5B220680079A84201DA2068057100BFBF
:103710000020FDF728FC304670BD0246D068081A2C
:10372000138AB0FBF3F0C0B2704770B504460D4683
:103730002E460020FDF712FC31462046FFF7EDFF34
:1037400021680A68511C2368196010700020FDF779
:103750000AFC70BD0246138AD06801FB0300704763
:1037600010B5014600BF09B90E2010BD00BF087A90
:103770000B79C01AC2B2D1E90030186005E00868C0
:103780000368581C0C6820601A70101EA2F1010317
:10379000DAB2F4D10B68187100BFE6E710B5044641
:1037A000206841692046884710BD70B504460D4623
:1037B000164620683246294603692046984770BD60
:1037C00001464FF08040405808B10120704700206A
:1037D000FCE708B500224FF080410A5009580091DB
:1037E00000BF08BD014908607047000008030040A1
:1037F000014908607047000004030040012291075E
:103800000A5070472DE9F04104460CB9BDE8F0813B
:1038100000BF4FF47A7505B904E0054FAE0130469C
:10382000B84700BF601E041EF3D100BFEEE70000E2
:10383000D16900002DE9F04104460CB9BDE8F081E2
:1038400000BF4FF47A7505B904E0054FAE0130466C
:10385000B84700BF601E041EF3D100BFEEE70000B2
:10386000E169000010B500240D48007808B18524F6
:103870000EE000200A49886048600861C860094875
:1038800000F080FF044600F073FF01200449087037
:1038900000F064FF10B1012001498870204610BD7E
:1038A00000AC01204914000010B50446144880788B
:1038B00078B114B10120616888470020FDF74EFB04
:1038C0000F48C068401C0E49C8600020FDF74BFB44
:1038D00015E00020FDF742FB24B1214608481030D6
:1038E000FFF7C0FB0648C06808B900F05DFF044858
:1038F000C068401C0249C8600020FDF734FB10BDC1
:1039000000AC01202DE9FF4705460C4616469846B7
:103910002F781A4840F82760194840F827804FF060
:103920000009184B0FCB8DE80F0020788DF80000B0
:1039300060788DF80100A0788DF80200E0788DF8AD
:10394000030020798DF8050060798DF80600A068E5
:103950000290207B8DF80C00607B8DF80D000EB17D
:10396000094800E0002002463B466946281D01F058
:103970004FF88146484604B0BDE8F087BCAB012053
:10398000CCAB0120846A0000C56300002DE9FF472D
:1039900004460D4616461F46DDF830804FF00009FC
:1039A000009501960297CDF80C8000226946201DF3
:1039B00001F07CF98146484604B0BDE8F0870FB4B9
:1039C00038B50446059810B938BC5DF814FB0020E2
:1039D000009006A800906A462046059900F012F86B
:1039E0000020009000BFEFE770B50446A06800B962
:1039F00070BDD4E90403A268216898470020A06044
:103A000000BFF5E72DE9FC5F82460D4614460DB96F
:103A1000BDE8FC9F00BF2E786D1C06B9E1E0252EA5
:103A200070D100274FF0010900BF2E782B2E0CD04B
:103A30002D2E02D0302E0CD103E047F001076D1C73
:103A40000AE047F002076D1C06E047F004076D1C12
:103A500002E04FF0000900BF00BFB9F1000FE4D150
:103A60004FF0000800BF2A2E06D12168081D2060F3
:103A7000086880446D1C0DE02E78302E01DB392E55
:103A800000DD07E06D1CA6F1300008EB880100EBBB
:103A90004108E8E700BF4FF0000B2E782E2E10D122
:103AA0006D1C00BF2E78302E01DB392E00DD07E0C3
:103AB0006D1CA6F130000BEB8B0100EB410BF1E725
:103AC00000BF2E7800BF6C2E01D0682E02D16D1C75
:103AD0002E7800E000E0F6E700BF692E21D008DC78
:103AE000252E6DD0582E39D0632E0CD0642E6CD17B
:103AF00016E0702E4CD0732E3ED0752E1FD0782E2F
:103B000063D12AE065E02168081D2060D1F80090AB
:103B100009F0FF00019050460199FDF713FC55E0B4
:103B200000BF2168081D2060D1F800905B460A2282
:103B300049465046CDE90087FFF79EF946E02168E7
:103B4000081D2060D1F800905B460A224946504685
:103B5000CDE9008702F0A4FE38E000BF2168081D0F
:103B60002060D1F800905B46102249465046CDE9CE
:103B7000008702F095FE29E02168081D2060086892
:103B800001903B4642465046019902F051FD1DE02E
:103B90002168081D2060D1F8009030215046FDF7C3
:103BA000D1FB78215046FDF7CDFB002008210B46C4
:103BB0001022CDE900104946504602F071FE05E0A2
:103BC00025215046FDF7BEFB00E000BF00BF6D1C85
:103BD00003E031465046FDF7B5FB287800287FF416
:103BE0001AAF00BF9AF80C0010B15046FFF7FCFE68
:103BF00000BF0DE72DE9FF470C4615461E46DDE9DF
:103C00000C78684600F0ACF8814644EA450040EA8A
:103C1000860040EA072040EA084109F5E060009A82
:103C200040F82210BDE8FF872DE9FF470C461546F6
:103C30001E46DDE90C78684600F0A2F8814644EAA9
:103C4000450040EA860040EA072040EA084109F5BD
:103C5000E060009A40F82210BDE8FF872DE9F84F98
:103C600005460C4600263746B046B14600956846E4
:103C700000F066F8824646EA470040EA840040EADF
:103C8000082040EA09410AF5E060009A40F8221055
:103C900000BFBDE8F88F2DE9F84F044601252E46F8
:103CA0004FF00008C14647460094684600F038F8D7
:103CB000824645EA460040EA880040EA092040EA98
:103CC00007410AF5E060009A40F8221000BFBDE805
:103CD000F88F1CB5044600200090034601221146CF
:103CE00001902046FFF786FF1CBD31B5684600F005
:103CF00017F804460121009A01FA02F0C4F80C05F5
:103D000000BF38BD31B5684600F02AF804460121ED
:103D1000009A01FA02F0C4F80C0500BF38BD00009B
:103D200001460868202802D24FF0A040704708786A
:103D300000F01F0008600148F8E700000003005091
:103D400001460868202802D24FF0A040704708784A
:103D500000F01F0008600148F8E700000003005071
:103D600001460868202802D24FF0A040704708782A
:103D700000F01F0008600148F8E700000003005051
:103D800001460868202802D24FF0A040704708780A
:103D900000F01F0008600148F8E700000003005031
:103DA00031B56846FFF7CCFF044600BFD4F81005D4
:103DB0000099C84000F0010038BD31B56846FFF7F2
:103DC000AFFF04460121009A01FA02F0C4F8080589
:103DD00000BF38BD31B56846FFF7C2FF0446012178
:103DE000009A01FA02F0C4F8080500BF38BD31B5E9
:103DF0006846FFF7C5FF04460121009A01FA02F068
:103E0000C4F8080500BF38BD31B56846FFF788FF24
:103E10000446D4F80455012000998840A843C4F80A
:103E200008050120009988402840C4F80C0538BDD9
:103E300070B504460E46FDF7B1F80546681C08B992
:103E4000284670BDE8B2E168087100BF0C48D0F8A0
:103E5000100430B90A48C0F810440020E168086036
:103E60000BE00748D0F81004C0680068E1680860FB
:103E70000348D0F81004C06804602846E1E7000059
:103E800008AE0120704710B5FCF7A4FB10BD7047C9
:103E900038B504460D4604484023044A294600909C
:103EA000204600F005F838BDD160000070AC01205C
:103EB0002DE9F04F93B082460E4617469846DDF83E
:103EC0007090304600F0C7FB18210DA8FCF777FA78
:103ED0000D97CDF83880CDF8489000252B46082264
:103EE00007A9304600F0D4FB082509980A90BDF8D0
:103EF0002000ADF82C00BDF82200ADF82E00002007
:103F00008DF83100079800F0030001281BD10798B5
:103F10004FEA902B0798C0F3C2008DF83000079845
:103F2000C0F38314A2002B4601A9304600F0B0FB79
:103F300005EB84050DA80AAB224601A9009058465E
:103F400000F0C8FA27E0079800F00300022822D109
:103F500007984FEA905B0798C0F3C2008DF83000D5
:103F600000BFBBF1080F01D2584600E0082004460C
:103F70002B46224605A9304600F08AFB2544ABEBD0
:103F8000040B0DAB0AAA214605A800F0EBF9BBF122
:103F9000000FE6D100BF304600F06BFB13B0BDE868
:103FA000F08F000010B502460B4C04EBC203012950
:103FB00006D0022906D0032906D0042908D105E03D
:103FC000022007E0042005E0187903E0587901E0B9
:103FD000002000BF00BF10BDFC6C000010B54FF00A
:103FE000FF34FFF750FF04210548FFF721FF044687
:103FF00000BF01200249C968487100BF10BD000020
:10400000EC6C00002DE9F04F8BB0FDF7B1F918B161
:1040100000200BB0BDE8F08F0020B549C1F81804AE
:1040200000BF00BF00BFBFF34F8F00BF00BF00BF86
:10403000084680680A90AF4804680A9820400C310E
:1040400001EB800A002500260020069000BF0AA987
:104050005046FEF770FFA8B1A548D0F8180488B9FB
:10406000A34840680A99884205D8A1484068A049F9
:1040700088600020CDE70A9820409D490C3101EB73
:10408000800A00E000E0E2E700BF00270BE00A98AA
:10409000411C20400A9196490C3151F8200007A993
:1040A00041F827007F1C022FF1D3079800F003008E
:1040B00002287CD10798800D059050210798B1EB1C
:1040C000905F02DD0798800D00E050208146079840
:1040D00069F39F50079009F1080004900798C0F316
:1040E000C20006908448049900F058FA0546002D55
:1040F0005BD0284600F0AFFA3346082207A92846CD
:1041000000F0D7FA08360A982040611C081A4FEAD6
:104110008008C14535D9B8F1000F06D00A98204073
:1041200073490C3101EB800001E071480C300390C1
:10413000B8F1000F01D0404600E0484600F0FF0B08
:10414000B8F1000F02D06A480C3000E00020029065
:10415000B8F1000F02D0A9EB080000E00020C0B2C7
:10416000019033465A462846039900F0A2FA5E446D
:10417000029828B133462846DDE9012100F099FA7A
:104180000CE00A9820405A490C3101EB800B334671
:104190004A465946284600F08CFA00BF0598C01CD4
:1041A0000A9901EB90000A9000BF44E0FFE70798EE
:1041B00000F0030001283ED10798C0F383100628C1
:1041C00003DA0798C0F3831000E00620079960F334
:1041D000891107910798C0F3831000F1020807982E
:1041E000C0F3C20006904FEA8801434800F0D6F9B8
:1041F0000546FDB1284600F02EFA3346082207A9ED
:10420000284600F056FA083600270EE00A98421CAD
:1042100020400A92364A0C3202EB800133460422D7
:10422000284600F046FA361D7F1C0798C0F383101D
:10423000B842EBD800BFC5B32D48D0F81084D0F8F1
:10424000180418B1284600F014FA2DE019E04FF0D8
:10425000000900BFD8F80C004079012800D1814640
:10426000B9F1000F08D000BFD8F800002946026855
:104270004046904700BF00BFD8F80C00D0F800803F
:1042800000BFB8F1000FE2D1284600F0F2F900209B
:10429000FCF764FE1648D0F8180410B914490A98BF
:1042A00088600020FCF75FFE1DE0FFE71048D0F8B3
:1042B00010840AE0C146D9F8000081684846884762
:1042C00000BFD8F80C00D0F80080B8F1000FF1D191
:1042D0000A490B4A891AC908022242EA014009A187
:1042E00000F01AF800BFFDF743F880F0010090E6F7
:1042F00008AE0120880000203C6D0000346D0000F5
:10430000FC6C00004261636B656E647320666C75C3
:10431000736865640000000070B504460D46002314
:104320001A462946204602F04BF970BDF8B50546FD
:104330000E461446009401236A463146284602F090
:104340003FF9F8BD2DE9FC4106460F4614461D46CF
:104350000094019502236A463946304602F030F94E
:10436000BDE8FC812DE9F05F07460E4690461D46EC
:10437000082E01D9BDE8F09F95F80C900020287315
:104380002946404600F0ECFC00240CE0B44205D283
:104390003A5D1DA12846FFF712FB03E01CA1284649
:1043A000FFF70DFB641C082CF0D31AA12846FFF779
:1043B00006FB00241DE0B44216D217F804A0BAF19F
:1043C0007E0F09DCFBF7DEFF006810F80A0000F042
:1043D0003E0008B1504600E02E2083465A460EA10A
:1043E0002846FFF7ECFA03E00CA12846FFF7E7FAAE
:1043F000641C082CDFD301222946404600F08CFCC7
:1044000085F80C9000BFB5E7202530327800000019
:10441000202020007C000000256300002000000018
:104420002DE9F04106460F4600BF002009490870FB
:10443000094800F018F9044614B12046BDE8F0819F
:10444000064800F047F906480649401AC50800200A
:10445000F4E7000008AE01203C6D0000786B00001E
:104460003C6D0000FC6C000002480349401AC00883
:10447000704700003C6D0000FC6C000013B50C465A
:1044800021466846FEF7D6FF28B90448009A00EB9B
:10449000C20108681CBD0020FCE70000FC6C0000A5
:1044A00070B50B48D0F810440120094908700CE0A1
:1044B00000BF0120E168487100BF254628684168B7
:1044C0002846884700BFE0680468002CF0D170BD22
:1044D00008AE01202DE9FF4707460C4616469846D0
:1044E0000C9D95F80C90002028732946404600F05A
:1044F00037FC072E47D2DFE806F004090F161F2A03
:10450000370039462846FFF75AFA3DE03946284633
:104510002268FFF754FA37E039462846D4E90023E9
:10452000FFF74DFA30E0A068009039462846D4E9FC
:104530000023FFF744FA27E0D4E90201CDE90001A6
:1045400039462846D4E90023FFF739FA1CE0D4E9BC
:1045500002122069CDE90012029039462846D4E9BA
:104560000023FFF72CFA0FE0D4E90223D4E904106A
:10457000CDE90023CDE9021039462846D4E90023CD
:10458000FFF71DFA00E000BF00BF002229464046A9
:1045900000F0C2FB85F80C90BDE8FF872DE9F84FCD
:1045A00007468A46388AA0F104080AF1040040440C
:1045B000401EB0FBF8F0C0B200903846FFF787F815
:1045C000044614B90020BDE8F88F002020710121B5
:1045D0006171A4F8068025460098A0F1010B2C46D5
:1045E0002F604FF0000912E03846FFF770F80646DA
:1045F00036B16079401C60712E603760354604E04A
:10460000204600F008F80020DDE709F10109D9454E
:10461000EAD32046D7E72DE9F05F0446274697F80E
:1046200005802646A8F1010B002501E036686D1CC7
:104630005D45FBD3D6F800A02646002507E0D6F856
:10464000009031465046FFF770F84E466D1C4545C8
:10465000F5D3BDE8F09F70B5044625460121281D1D
:10466000FEF7FEFF70BD10B504462046FFF778F850
:1046700010BDF8B5044626460121301DFFF71CF891
:1046800000906D46287810B92046FFF7C4FFF8BDAA
:104690002DE9FC4105460E4614461F4601940120B3
:1046A0003B4601AA314600902846FEF75DFEBDE874
:1046B000FC812DE9FC4105460E4614461F46019437
:1046C00000203B4601AA314600902846FEF74CFEEA
:1046D000BDE8FC8100218268916082681161826876
:1046E00051618268D1608268516082681160704750
:1046F00008B5002242504258009200BF08BDC0F8E1
:1047000048137047C0F8441370470246505870472A
:10471000C0F808137047C0F8041370470246D2F877
:104720000403084070470122425070470122425062
:1047300070470246505808B1012070470020FCE73E
:1047400008B5002242504258009200BF08BDC0F890
:104750000813704701224250704700000348006868
:1047600008B1012070470020FCE700000004014070
:1047700010B500F037F801200149086000BF10BDF6
:104780001805004001460020064A12790AB185202A
:1047900006E0044A11600122024B1A7100225A718C
:1047A000704700005000002010B54FF48270FFF7F2
:1047B00010F80220FFF71CF80820FFF71FF810BDC3
:1047C0000146080B40B270470146080B40B27047E3
:1047D000014601F06040B0F1005F01D10120704757
:1047E0000020FCE72DE9F04107254FF08040FFF75E
:1047F000EBFF04462046E21704EBD262521192000E
:1048000002F1E022D2F800212146E31704EBD36342
:104810005B11A4EB43160123B3401A400AB10122F5
:1048200000E0002282BB4FF08040FFF7CDFF04463E
:104830002E4620463146002804DB4A07130E134A51
:10484000135406E04A07170E114A00F00F031B1F0E
:10485000D75400BF00BF4FF08040FFF7B5FF0446BC
:10486000204600280DDB00BF00BF00F01F02012121
:1048700091404209920002F1E022C2F8001100BF0B
:1048800000BF00BF00BF00BFBDE8F08100E400E052
:1048900018ED00E02DE9F04107460E46384600F0DD
:1048A00005FB0446BCB14FF000080020FCF756FBA6
:1048B000207910B14FF0010802E02660012020713C
:1048C0000020FCF750FBB8F1000F03D0112528465B
:1048D000BDE8F08100BF00252846F9E770B5054620
:1048E000284600F0E3FA044614B10020206020714D
:1048F00070BD000010B5044600212068FFF716FFC8
:104900000220617901EB4101014A505410BD0000C1
:104910005C0000202DE9F0430346164658792D4AE5
:1049200042F82060587900EB40002B4A105C18B127
:1049300008242046BDE8F08393F904508F78284678
:104940003A46002808DB4FEA427C4FEA1C68DFF851
:104950008CC00CF800800BE04FEA427C4FEA1C69E7
:10496000DFF87CC000F00F08A8F104080CF80890EC
:1049700000BF00BF93F90420104600280DDB00BFE4
:1049800000BF00F01F070125BD404709BF0007F128
:10499000E027C7F8005100BF00BF00BF00BF0A8872
:1049A0001868C0F8082500BF08795A7902EB42025E
:1049B000094D2A445070C8785A7902EB42022A44C1
:1049C000907001205A7902EB4202A854002420463C
:1049D000B0E70000580000205C00002000E400E088
:1049E00018ED00E02DE9F04104460D464FF48276C3
:1049F000022731462068FFF77BFE39462068FFF723
:104A000081FE1DB139462068FFF785FEBDE8F081C3
:104A10002DE9FF4F83B007460C46387900EBC00004
:104A20006A4901EB8006307F28B14FF0080A5046F2
:104A300007B0BDE8F08F3D683A79654B53F8221016
:104A40003868FFF727FF18B14FF0110A5046EFE71B
:104A50000598306006987060207B012803DC207880
:104A6000FFF750F902E02078FFF7B4F9002000903A
:104A70000190207800231A460121FFF7BBF86078E7
:104A8000FF2808D094F801904846FFF73BF94846C4
:104A9000FFF71FF901E04FF0FF39A078FF280ED093
:104AA00094F802804FF0010B002000905B46024614
:104AB000014601904046FFF79DF800BF01E04FF02E
:104AC000FF38A07886F82000E078F077E078FF28BB
:104AD0000DD0207918B1E078FFF714F902E0E07802
:104AE000FFF778F9E078FFF7F4F82079B0772078CD
:104AF000C5F80805C5F80C95C5F8108500BFA06875
:104B0000C5F8240500BF217B627B0AB1012300E0C8
:104B10000023184631B1012906D0022907D0032904
:104B200008D000BF00BF08E040F0020005E040F000
:104B3000040002E040F0060000BF00BFC5F85405C5
:104B400000BFA079C5F8C00500BF00BF0720C5F8A9
:104B5000000500BF306888B33868FFF731FE834630
:104B60006179029158460299002804DB4A07130E26
:104B7000184A135408E04A074FEA126C164A00F02C
:104B80000F031B1F02F803C000BF00BF3868FFF708
:104B900017FE8346584600280DDB00BF00BF00F01B
:104BA0001F02012191404209920002F1E022C2F865
:104BB000001100BF00BF00BF00BF00BF0020707722
:104BC000012030774FF0000A504631E7DCAB01207E
:104BD000A46A000000E400E018ED00E02DE9FC41CB
:104BE0000546287900EBC0002D4901EB80042068C0
:104BF00008B32868FFF7E4FD06463046002817DBB7
:104C000000F01F0201219140264A430942F8231077
:104C100000BF00BF00BFBFF34F8F00BF00BF00BF8A
:104C200000BF00BF00BFBFF36F8F00BF00BF00BF5A
:104C300000BF00BF00BF2F68206898B11A493846EE
:104C4000FFF785FD607F68B114213846FFF782FDCC
:104C500000BF4FF482713846FFF76BFD0028F8D093
:104C60000020607794F82000FF280CD094F8206092
:104C70000020009003460122014601903046FEF7D5
:104C8000B9FF00BF00BF00BF0020C7F8000500BF8C
:104C90002868FFF723FE00202077BDE8FC81000094
:104CA000DCAB012080E100E0520108002DE9F04179
:104CB00005460E461746287900EBC000154901EB62
:104CC00080044FF00008607F20B14FF0110840468B
:104CD000BDE8F081206820B107F0140008B9012078
:104CE000607796E80E10C4E9053CC4E90312E07F42
:104CF000FF2808D0A07F18B1E07FFFF76BF802E033
:104D0000E07FFEF7FFFF3B4632462146286801F070
:104D100079FBDDE7DCAB012070B504460D46164695
:104D2000207A05280CD0607A28B10A480AA10268C6
:104D30002846FEF744FE09A12846FEF740FE04E09F
:104D40001EB106A12846FEF73AFE2846FEF74CFEA5
:104D500070BD0000A0000020257300000D0A0000B7
:104D6000F8B504460D46E08838B116A00090E388F7
:104D700016A218A12846FEF722FE207A05281FD089
:104D8000607A58B1217AA088FFF70CF9174951F8D9
:104D90002060324616A12846FEF711FE28462168FB
:104DA00001F0F1FCA0880021FFF768FB0646207A9D
:104DB000104951F8202033460FA12846FEF7FFFD89
:104DC000F8BD00001B5B306D000000001B5B313B39
:104DD00033316D0025734C6F67732064726F707090
:104DE0006564202825642925730D0A00A000002091
:104DF000257300008C0000203C25733E2025733A6B
:104E00002000000038B50446012221461B48FDF76A
:104E100005F91B49087008460078B0B96B464FF495
:104E2000806218491548FDF7F1F91448FCF7F6FFC0
:104E30001549164A891AC908032242EA0140114B52
:104E4000224613A1FFF77EFA0AE00F490F4A891A9A
:104E5000C908032242EA01400A4A0FA1FFF766FA95
:104E600000BF00BFFFF7CEF80028FBD100BF4FF412
:104E700080610448FBF7A3FA38BD00004803002016
:104E800008000020A1050020346D0000FC6C00002B
:104E900025730D25730000007265616420646174E0
:104EA00061206661696C656420000000014603486A
:104EB000814201D1024870470020FCE700200040F9
:104EC000480000202DE9F04704460D4616464FF0F5
:104ED0000209022D74D36069A84271D92078012893
:104EE00004D0022849D003280DD15EE02F4607EBFD
:104EF0005707206A00EB57212046FEF7B7FA814694
:104F0000B9F1000F00D075E038467F1CC0F30801EE
:104F100004F1300001EB000805F0010028B1F1B206
:104F200098F8000061F31F1000E0304688F8000098
:104F30000120E070206A00EB57212046FEF796FA28
:104F40008146B9F1000F00D054E0C7F3080104F125
:104F5000300001EB000805F0010010B1C6F30710A6
:104F600006E098F8000000F0F000C6F303210843C3
:104F700088F800000120E0703CE0206A00EB152179
:104F80002046FEF773FA8146B9F1000F00D031E0F8
:104F9000B1B240F2FF1202EA450304F13002981860
:104FA00001F0D6FA0120E07024E0206A00EBD51170
:104FB0002046FEF75BFA8146B9F1000F01D019E0F7
:104FC00019E040F2FF1101EA850204F130015018A6
:104FD000FEF76CF866F31B00064640F2FF1101EA8B
:104FE000850204F130015018314601F0A5FA012084
:104FF000E07000BF00BF4846BDE8F08770B50F48BD
:1050000000F08CF80446002C16DDFBF798FA00251A
:1050100009E00B4828440B4A12688118074800F041
:1050200091F8681C85B2A542F3DB0648006820446D
:1050300004490860FBF77EFA70BD0000B00B002049
:10504000BC1B0020280000202DE9F04781460E46B9
:1050500017464FF00008D9F80040022E02D36069CD
:10506000B04202D80220BDE8F08767B100BF4FF020
:10507000FF3239462046FFF725FF8046B8F1000F82
:1050800001D04046EFE700BF31464846FDF760FEDD
:10509000054605B922E0012D01D10220E3E7681C95
:1050A00008B90120DFE7002231462046FFF70AFF5A
:1050B0008046B8F1000F01D04046D4E7D4E904108F
:1050C000801E814206D22069401C2061207940F078
:1050D000010020712E466069B042D5D800BF002083
:1050E000C1E770B504460D46164600202060A0803A
:1050F000A088E080268105B970BD256021892068DF
:10510000FBF75DF900BFF7E710B50020FBF726FFBE
:1051100010BD10B50020FBF726FF10BD70B504468A
:105120000025FFF7F1FFA08821890844E188401A93
:10513000218990FBF1F201FB120085B2FFF7E9FF34
:10514000284670BD70B504460D46FFF7DDFFE088C8
:10515000A18888420CD0E1882068405C28702189B1
:10516000E08800F009F8E080FFF7D3FF002070BD71
:10517000FFF7CFFF0120FAE70246501C90FBF1F346
:1051800001FB130080B2704770B504460D4600263F
:10519000FFF7BAFF2189A088FFF7EEFF0646E088F7
:1051A000B04203D0A18820684554A680FFF7B1FF24
:1051B00070BD000010B54FF4805202490248FFF75D
:1051C00090FF10BDBC0B0020B00B00207CB5164931
:1051D00003C9CDE9000140F2FF70ADF80000134AA9
:1051E00069461348FFF796FB044600BF254625B1E4
:1051F00000BF2846FBF730FD00BF00BF0C49086820
:105200000C21FFF790FA00BF254625B100BF2846C4
:10521000FBF722FD00BF00BF01210548FFF7E2FBBD
:105220000348FFF767FB7CBDBC69000035520000F6
:10523000B469000010B50446052C07D101200449CB
:105240000860044908680C21FFF76DFA10BD0000E2
:1052500020000020B469000070B501460878821172
:1052600022B1012A1CD0022A26D100E000BF087A10
:105270008009CE7900EB86008E7906F0030600EBFC
:105280008623487900F00F04887AC0094E7A06F028
:10529000030600EB46056019C61F581CB04070BDE0
:1052A000487A0C7A00EB0420CC7904F03F0400EB40
:1052B0000443581C8002F2E700BF00BF0020EEE765
:1052C0002DE9F04705460E4690463A4890F82300EF
:1052D00010B11120BDE8F08700240121354880F885
:1052E000231005F08000A8B106240221314880F87F
:1052F000231077202F4981F8280000212D4880F8BD
:10530000291080F82A1080F82B1080F82C10FF212B
:1053100080F82D1005F07F01264828300155320E07
:10532000601C244928310A54C6F30742A01C0A54C1
:10533000C6F30722E01C0A54201D0E54402D02D053
:10534000482D04D101E0952703E0872701E0FF27DE
:1053500000BF00BF601D174928310F54B8F1020F7C
:1053600003D0B8F1030F0AD104E00521114880F8F9
:10537000241009E005210F4880F8241004E00121E1
:105380000C4880F8241000BF00BF05F0800008B171
:10539000012002E0074890F82400814609F10E0040
:1053A000C3B2044A38320621A2F1100000F054FEC4
:1053B00000208FE714AC01202DE9FE4305466878F4
:1053C0004249087042480668B469287820B101282B
:1053D00034D002286CD14CE0687880B1B1464846A0
:1053E000FBF7C8FE074600BFB846B8F1000F04D06F
:1053F00000BF4046FBF730FC00BF00BF00BFFBF71B
:10540000F1FC006820604FF4007060603048006874
:105410008069806888B100200090019002906878CF
:1054200008B1012000E000208DF80100A069029081
:1054300069463046A268904700BF43E024480068B0
:1054400080698068A0B1234A07CA8DE807006878A0
:1054500008B1012000E000208DF8010004F10C00EB
:105460000190A069029069463046A268904700BF4B
:1054700028E01748006880698068C0B1154A0C327E
:10548000D2E900109268CDE901020091687808B174
:10549000012000E000208DF8010004F10C000190D3
:1054A000A069029069463046A268904700BF09E0B3
:1054B00000BF032700BF0320FBF7CEFB00BF00BFE8
:1054C000BDE8FE8300BF00BFFAE7000064000020D3
:1054D000680000200C6B00002DE9FC5F80468946C7
:1054E000154698F8006098F80100000698F8021038
:1054F00040EA014098F8031040EA012098F80410AF
:1055000040EA010B0127FE48808BB0F50E7F7DD06D
:1055100010DC40F21322A0EB0201904252D004DCD6
:10552000D0B1B0F5047F72D12FE006297AD01329CB
:10553000F9D1BAE040F26122811A904269D006DCCA
:10554000A0F24D20002870D00628ECD174E10A2981
:105550006CD00F29E7D1FEE12BE20122002140208F
:10556000FFF7AEFE044600BFA246BAF1000F04D01A
:1055700000BF5046FBF770FB00BF00BF00BF002715
:105580004FF40471DE48818300BF17B90120BDE8E4
:10559000FC9F00BF012200214020FFF791FE04463E
:1055A00000BFA246BAF1000F04D000BF5046FBF77F
:1055B00053FB00BF00BF00BF002740F21321D048BB
:1055C000818300BF0FB90120E1E700BF00BF26F0D3
:1055D000030040B100BF0420287000BF0021C8486C
:1055E00081830220D3E700BF03224FF4D571482006
:1055F000FFF766FE044600BFA246BAF1000F04D0D2
:1056000000BF5046FBF728FB00BF03E089E0D1E173
:1056100008E04BE100BF00BF002740F21921B84865
:10562000818300BF1FB90120B1E7D7E072E100BF5D
:1056300006F00400A0B9B248807A20F00700C01C30
:10564000AF49887200BF26F0030040B100BF0420BC
:10565000287000BF0021AA488183022097E700BF7D
:105660000021A7480184807A00F00700032802D1B6
:105670004FF0804000E0002001900222E9200199D3
:10568000FFF71EFE044600BFA246BAF1000F04D089
:1056900000BF5046FBF7E0FA00BF00BF00BF002785
:1056A00040F226219648818300BF0FB901206EE7A2
:1056B00000BF06F00400B8B39148807A20F00700DC
:1056C000401C8F49887226F0040600BF8C48008C6D
:1056D000401C81B28A480184008CB0F5FA6F08DD65
:1056E00000BF0220287000BF00218548818302206E
:1056F0004DE7022200214120FFF7E2FD044600BFF2
:10570000A246BAF1000F04D000BF5046FBF7A4FA3E
:1057100000BF00BF00BF00274FF40E71784881839F
:1057200000BF17B9012032E713E000BF00BF26F029
:10573000030040B100BF0420287000BF0021704862
:105740008183022023E700BF06F001000028BDD1BD
:105750008EE000BF26F0030040B100BF0420287097
:1057600000BF002166488183022010E700BF47E0A8
:105770006348008C401C81B261480184008CB0F504
:10578000FA6F08DD00BF0220287000BF00215C48CE
:1057900081830220FBE65A48807A00F00700032844
:1057A00002D14FF0804000E0002001900222E92069
:1057B0000199FFF785FD044600BFA246BAF1000F2C
:1057C00004D000BF5046FBF747FA00BF00BF00BF40
:1057D000002740F24D214A48818300BF0FB90120C4
:1057E000D5E600BF00BF26F0030040B100BF042093
:1057F000287000BF0021424881830220C7E600BF15
:1058000006F001000028B3D1022200217A20FFF720
:1058100057FD044600BFA246BAF1000F04D000BFF6
:105820005046FBF719FA00BF00BF00BF002740F247
:1058300053213348818300BF0FB90120A7E600BF81
:1058400000BF26F0030040B100BF0420287000BF55
:1058500000212B488183022099E600BF0BF0804095
:1058600030B12748807A20F0080008302449887237
:105870002348807A00F00700032829D00122510232
:105880005020FFF71DFD044600BFA246BAF1000FED
:1058900004D000BF5046FBF7DFF900BF00BF00BFD8
:1058A000002740F261211648818300BF0FB9012013
:1058B0006DE600BF00BF26F0030040B100BF04202A
:1058C000287000BF00210E48818302205FE600BFE0
:1058D0000B4848300A49C8600121483881820122BA
:1058E00000214920FFF7ECFC044600BFA246BAF1B4
:1058F000000F04D000BF5046FBF7AEF900BF01E037
:1059000014AC012000BF00BF002740F26B212C48DF
:10591000818300BF0FB9012039E600BF00BF26F028
:10592000030040B100BF0420287000BF00212448BC
:10593000818302202BE600BF08F10108A9F10100D4
:1059400000F0FF0900BF00211D48C18300BF4FF4D4
:105950001C71818300BF6B4610224946404600F00F
:10596000B3F8022801DA002011E600BF00BF00BF33
:105970009DF8000048B100BF9DF80000287000BFEE
:1059800000210F488183022001E600BF0C48483007
:10599000FFF762FC0A4948604FF400710848018132
:1059A00000BF0020287000BF00210548818302202D
:1059B000EDE5D2E500270021014881830320E6E5DB
:1059C00014AC01202DE9F84F06460F4614464FF05F
:1059D000010A3C48808B38B1B0F5267F22D0A0F276
:1059E000A220002867D156E064E096F8008000BF4E
:1059F00028F0030048B100BF0420207000BF002140
:105A0000304881830220BDE8F88F00BF761C781EE5
:105A1000C7B200BF00212B48C18300BF4FF42671DD
:105A2000818300BF6B464FF400723946304600F068
:105A30004BF8022801DA0020E5E700BF00BF00BFF5
:105A40009DF8000048B100BF9DF80000207000BF25
:105A500000211C4881830220D5E700BF1948808AB5
:105A600001281EDD012200214C20FFF729FC0546FC
:105A700000BFA946B9F1000F04D000BF4846FBF7AC
:105A8000EBF800BF00BF00BF4FF0000A40F2A221B8
:105A90000C48818300BFBAF1000F01D10120B2E7A9
:105AA00000BF00BF0020207000BF00210548818397
:105AB0000220A8E799E74FF0000A002101488183FE
:105AC0000320A0E714AC01202DE9F04704460D4661
:105AD00016461F464FF001088448C08B40F2D91289
